:041000006AEF08F09B
:081008000A50070B006E0A30CC
:10101000016E013201321F0E011601500C24E96EDF
:10102000000E0D20EA6E016A012A002A01D0013665
:10103000002EFDD70B5203E00150EF1203D0011E2A
:101040000150EF161200075218E0900E0524086EAA
:10105000000E0620096E08C00AF0010E0B6E0F0E7E
:101060000D6E890E0C6ED0DF08C00AF00B6A0F0EF1
:101070000D6E920E0C6EC8DF16D0900E0524086E11
:10108000000E0620096E08C00AF00B6A0F0E0D6EE6
:10109000890E0C6EB9DF08C00AF00B6A0F0E0D6ED8
:1010A000920E0C6EB1DF78EF08F0EA6A060EE96E78
:1010B000EF500EE00F0E016E006A002EFED7012EDB
:1010C000FBD78F0E006E002EFED70000EF2EF2D75A
:1010D0007FEF08F0F86AD09EC150C00B0F09C16EB7
:1010E000070EB46E7C0E066E180E056E076AABD73F
:1010F00095908C70040E056EFA0E066ED6D7052EEE
:06110000FBD7F6D7030047
:020000040030CA
:0E00000024CE3E1E0087A1000FC00FE00F406F
:00000001FF
;PIC18F4550
;CRC=D0E4  CREATED="01-ago-14 10:31"
